{
  "_format": "hh-sol-artifact-1",
  "contractName": "msgApp",
  "sourceName": "contracts/msgApp.sol",
  "abi": [
    {
      "inputs": [],
      "stateMutability": "nonpayable",
      "type": "constructor"
    },
    {
      "inputs": [
        {
          "internalType": "string",
          "name": "_name",
          "type": "string"
        },
        {
          "internalType": "string",
          "name": "_message",
          "type": "string"
        }
      ],
      "name": "buy",
      "outputs": [],
      "stateMutability": "payable",
      "type": "function"
    },
    {
      "inputs": [],
      "name": "getAllMsg",
      "outputs": [
        {
          "components": [
            {
              "internalType": "string",
              "name": "name",
              "type": "string"
            },
            {
              "internalType": "string",
              "name": "message",
              "type": "string"
            },
            {
              "internalType": "uint256",
              "name": "timestamp",
              "type": "uint256"
            },
            {
              "internalType": "address",
              "name": "from",
              "type": "address"
            }
          ],
          "internalType": "struct msgApp.memo[]",
          "name": "",
          "type": "tuple[]"
        }
      ],
      "stateMutability": "view",
      "type": "function"
    }
  ],
  "bytecode": "0x608060405234801561001057600080fd5b50336000806101000a81548173ffffffffffffffffffffffffffffffffffffffff021916908373ffffffffffffffffffffffffffffffffffffffff160217905550610abe806100606000396000f3fe6080604052600436106100295760003560e01c80637e4122d71461002e578063c63e529b14610059575b600080fd5b34801561003a57600080fd5b50610043610075565b60405161005091906105c7565b60405180910390f35b610073600480360381019061006e9190610732565b610258565b005b60606001805480602002602001604051908101604052809291908181526020016000905b8282101561024f57838290600052602060002090600402016040518060800160405290816000820180546100cc906107d9565b80601f01602080910402602001604051908101604052809291908181526020018280546100f8906107d9565b80156101455780601f1061011a57610100808354040283529160200191610145565b820191906000526020600020905b81548152906001019060200180831161012857829003601f168201915b5050505050815260200160018201805461015e906107d9565b80601f016020809104026020016040519081016040528092919081815260200182805461018a906107d9565b80156101d75780601f106101ac576101008083540402835291602001916101d7565b820191906000526020600020905b8154815290600101906020018083116101ba57829003601f168201915b50505050508152602001600282015481526020016003820160009054906101000a900473ffffffffffffffffffffffffffffffffffffffff1673ffffffffffffffffffffffffffffffffffffffff1673ffffffffffffffffffffffffffffffffffffffff168152505081526020019060010190610099565b50505050905090565b6000341161026557600080fd5b60008054906101000a900473ffffffffffffffffffffffffffffffffffffffff1673ffffffffffffffffffffffffffffffffffffffff166108fc349081150290604051600060405180830381858888f193505050501580156102cb573d6000803e3d6000fd5b50600160405180608001604052808481526020018381526020014281526020013373ffffffffffffffffffffffffffffffffffffffff168152509080600181540180825580915050600190039060005260206000209060040201600090919091909150600082015181600001908161034391906109b6565b50602082015181600101908161035991906109b6565b506040820151816002015560608201518160030160006101000a81548173ffffffffffffffffffffffffffffffffffffffff021916908373ffffffffffffffffffffffffffffffffffffffff16021790555050505050565b600081519050919050565b600082825260208201905092915050565b6000819050602082019050919050565b600081519050919050565b600082825260208201905092915050565b60005b838110156104175780820151818401526020810190506103fc565b60008484015250505050565b6000601f19601f8301169050919050565b600061043f826103dd565b61044981856103e8565b93506104598185602086016103f9565b61046281610423565b840191505092915050565b6000819050919050565b6104808161046d565b82525050565b600073ffffffffffffffffffffffffffffffffffffffff82169050919050565b60006104b182610486565b9050919050565b6104c1816104a6565b82525050565b600060808301600083015184820360008601526104e48282610434565b915050602083015184820360208601526104fe8282610434565b91505060408301516105136040860182610477565b50606083015161052660608601826104b8565b508091505092915050565b600061053d83836104c7565b905092915050565b6000602082019050919050565b600061055d826103b1565b61056781856103bc565b935083602082028501610579856103cd565b8060005b858110156105b557848403895281516105968582610531565b94506105a183610545565b925060208a0199505060018101905061057d565b50829750879550505050505092915050565b600060208201905081810360008301526105e18184610552565b905092915050565b6000604051905090565b600080fd5b600080fd5b600080fd5b600080fd5b7f4e487b7100000000000000000000000000000000000000000000000000000000600052604160045260246000fd5b61063f82610423565b810181811067ffffffffffffffff8211171561065e5761065d610607565b5b80604052505050565b60006106716105e9565b905061067d8282610636565b919050565b600067ffffffffffffffff82111561069d5761069c610607565b5b6106a682610423565b9050602081019050919050565b82818337600083830152505050565b60006106d56106d084610682565b610667565b9050828152602081018484840111156106f1576106f0610602565b5b6106fc8482856106b3565b509392505050565b600082601f830112610719576107186105fd565b5b81356107298482602086016106c2565b91505092915050565b60008060408385031215610749576107486105f3565b5b600083013567ffffffffffffffff811115610767576107666105f8565b5b61077385828601610704565b925050602083013567ffffffffffffffff811115610794576107936105f8565b5b6107a085828601610704565b9150509250929050565b7f4e487b7100000000000000000000000000000000000000000000000000000000600052602260045260246000fd5b600060028204905060018216806107f157607f821691505b602082108103610804576108036107aa565b5b50919050565b60008190508160005260206000209050919050565b60006020601f8301049050919050565b600082821b905092915050565b60006008830261086c7fffffffffffffffffffffffffffffffffffffffffffffffffffffffffffffffff8261082f565b610876868361082f565b95508019841693508086168417925050509392505050565b6000819050919050565b60006108b36108ae6108a98461046d565b61088e565b61046d565b9050919050565b6000819050919050565b6108cd83610898565b6108e16108d9826108ba565b84845461083c565b825550505050565b600090565b6108f66108e9565b6109018184846108c4565b505050565b5b818110156109255761091a6000826108ee565b600181019050610907565b5050565b601f82111561096a5761093b8161080a565b6109448461081f565b81016020851015610953578190505b61096761095f8561081f565b830182610906565b50505b505050565b600082821c905092915050565b600061098d6000198460080261096f565b1980831691505092915050565b60006109a6838361097c565b9150826002028217905092915050565b6109bf826103dd565b67ffffffffffffffff8111156109d8576109d7610607565b5b6109e282546107d9565b6109ed828285610929565b600060209050601f831160018114610a205760008415610a0e578287015190505b610a18858261099a565b865550610a80565b601f198416610a2e8661080a565b60005b82811015610a5657848901518255600182019150602085019450602081019050610a31565b86831015610a735784890151610a6f601f89168261097c565b8355505b6001600288020188555050505b50505050505056fea264697066735822122057ca5398fdbe175f1084a40628f22a366b77f5dceb3daaa7f402aa8c724ebcce64736f6c63430008110033",
  "linkReferences": {},
  "deployedLinkReferences": {}
}